:020000040000FA
:1000000050060010A9010000AD010000AF01000082
:10001000B1010000B3010000B501000000000000C4
:10002000000000000000000000000000B701000018
:10003000B901000000000000BB010000BD0100008C
:10004000BF010000BF010000BF010000BF010000B0
:10005000BF010000BF010000BF010000BF010000A0
:10006000BF010000BF010000BF010000BF01000090
:10007000BF010000BF010000BF010000BF01000080
:10008000BF010000BF010000BF010000BF01000070
:10009000BF010000BF010000BF010000BF01000060
:1000A000BF010000BF010000BF010000BF01000050
:1000B000BF010000BF010000BF010000BF01000040
:1000C000BF01000000F002F800F060F80AA090E81C
:1000D000000C82448344AAF10107DA4501D100F003
:1000E00055F8AFF2090EBAE80F0013F0010F18BF70
:1000F000FB1A43F001031847780200009802000041
:1001000010F8013B0A4413F0030408BF10F8014B38
:100110001D1108BF10F8015B641E05D010F8016BBB
:10012000641E01F8016BF9D1002D15D010F8014BB8
:1001300003F00C030C2BA1EB04040ABF10F8013BE5
:10014000A4EB8314A4EB032405F1010314F8016B61
:100150005B1E01F8016BF9D5914238BF10F8013BE5
:10016000D1D370470023002400250026103A28BF71
:1001700078C1FBD8520728BF30C148BF0B60704719
:100180001FB5AFF300801FBD10B510BD00F0B8F86B
:100190001146FFF7F5FF00F069F800F0D6F8FFF719
:1001A000F3FF00F0D9F8000008480047FEE7FEE73B
:1001B000FEE7FEE7FEE7FEE7FEE7FEE7FEE7FEE717
:1001C00003480449024A044B70470000C500000080
:1001D00050040010500600105004001030203D491B
:1001E000086000203C49C1F88000AA203A498C31BF
:1001F000086055203849C1F88C0000BF35480068B8
:1002000010F0400FFAD001203249943908600F20D5
:100210003149C1F8840001202F4980310860AA20AB
:100220002D498C3108605520086003202A49C1F807
:10023000040100BF28488830006810F0806FF9D0B2
:100240000320254980310860AA202349C1F88C0089
:10025000552021498C310860704700BF1F49097D36
:1002600011F0200FFAD01D490870704700B5002228
:100270000023FFF7B3FF1A48006840F05000184908
:10028000086083201549087349200870022008710E
:10029000F1201249283108701048007B20F08000BE
:1002A0000E490873002204E00E49885CFFF7D5FF71
:1002B000521C0C48805C0028F6D1002304E00A4957
:1002C000C85CFFF7CAFF5B1C0748C05C0028F6D17A
:1002D00000BD0000A0C10F4000C00F4000C00040A2
:1002E00000C0024000000010280200107047704754
:1002F0007047000000487047F0030010FFFFFFFF49
:100300007546FFF7F7FFAE4605006946534620F0F5
:100310000700854618B020B5FFF752FFBDE8204022
:100320004FF000064FF000074FF000084FF0000BB1
:1003300021F00701AC46ACE8C009ACE8C009ACE864
:10034000C009ACE8C0098D4670470446AFF3008091
:100350002046FFF724FF000003494FF01800ABBE12
:1003600070470000090000002600020070470000EE
:100370009003000000000010F003000000010000E6
:1003800084060000F0030010600200006401000019
:10039000103646696E616E6365204D696E697374CF
:1003A0006572204172756E204A6169746C657920AE
:1003B0005475657364617920686974206F75742061
:1003C000617420666F726D27100C52424920676F6E
:1003D0007665726E6F0D10086167687572616D09E0
:1003E00020046A616E231011200D0A707265646921
:1003F0006374696E6720746839200E746865206EB6
:100400006578742062616E6B161016637269736989
:100410007320776F756C64206265207472696767FA
:1004200035100E206279204D534D45206C656E6469
:100430003F20062C20736179471014706F73746D20
:100440006F7274656D2069730D0A656173698A1135
:100450005D30056E20746153126170100E6F6E2056
:100460007768656E20726571756984422E96122CCC
:100470001630096F206861642061738C100D636809
:100480006965662065636F6E6F6DFB21DC100A493C
:100490004D460D0A7761726E8540076F6620696D63
:1004A000708237206626600469616CB5111E100FDA
:1004B000323030382C20696E2061206E6F74BF128C
:1004C0006F0A40187061726C69616D656E74727943
:1004D00020636F6D6D6974746565205420080D0A82
:1004E000616761696E6C10046D6269AA137573505F
:1004F0001526151D100E61726765747320616E6498
:10050000206C6FD11004776176DD7273FC65432136
:100510005655303007736F757263658C2558C70D5B
:100520000A5934042E2047A0218D340420736866B4
:100530001004666F63741522D13C5133222CCA44D7
:1005400005206A7573AE136C6109200B6F6E652E02
:100550000D0A000A496EDD5409746963756C617295
:100560002CFCA15C100572656672DE340A2066728E
:100570006F6D20736574FA0117E9193621E315D6FA
:1005800021EF127363D6430A2272E210066D65747E
:10059000696DE42661AE4A761C1A61413004646FCD
:1005A0006E5F14097070726F707269618013647588
:1005B000041806696C696765D0262C5919C5453B36
:1005C0001A652D44066E7669726F0D29A0100566B6
:1005D0007574756248074E5041732C22B724057319
:1005E000616964D039A915D2400D222E426F74681A
:1005F000204D55445241A6293B680577656C6C43F4
:1006000070064B6973616EBA28054361726466189F
:1006100004696C65AB46702838046861761B15B0B8
:1006200028066578616D695B19C4197F30076C6FA6
:1006300073656C798D12706E4B6E745F390F15C1D6
:10064000AA6BB81B0D0A11CE7375032139180474F7
:1006500068725E180579656172D41269991C045339
:1006600065701F031E62C8031805323031369F15AE
:10067000791804757272900008006C792E000000E1
:040680000000000076
:04000005000000C532
:00000001FF
