:020000040000FA
:100000005806001045010000490100004B010000A6
:100010004D0100004F0100005101000000000000F0
:10002000000000000000000000000000530100007C
:1000300055010000000000005701000059010000B8
:100040005B0100005B0100005B0100005B01000040
:100050005B0100005B0100005B0100005B01000030
:100060005B0100005B0100005B0100005B01000020
:100070005B0100005B0100005B0100005B01000010
:100080005B0100005B0100005B0100005B01000000
:100090005B0100005B0100005B0100005B010000F0
:1000A0005B0100005B0100005B0100005B010000E0
:1000B0005B0100005B0100005B0100005B010000D0
:1000C0005B01000000F002F800F02EF80AA090E8B2
:1000D000000C82448344AAF10107DA4501D100F003
:1000E00023F8AFF2090EBAE80F0013F0010F18BFA2
:1000F000FB1A43F001031847540200006402000099
:100100000023002400250026103A28BF78C1FBD820
:10011000520728BF30C148BF0B6070471FB5AFF30F
:1001200000801FBD10B510BD00F0EAF81146FFF7C2
:10013000F5FF00F093F800F0CAF8FFF7F3FF00F0C6
:10014000D1F8000008480047FEE7FEE7FEE7FEE7BB
:10015000FEE7FEE7FEE7FEE7FEE7FEE703480449A9
:10016000024A044B70470000C5000000580400100C
:10017000580600105804001030204E490860002036
:100180004D49C1F88000AA204B498C3108605520A8
:100190004949C1F88C0000BF4648006810F0400F84
:1001A000FAD001204349943908600F204249C1F830
:1001B00084000120404980310860AA203E498C31EA
:1001C00008605520086003203B49C1F8040100BFC6
:1001D00039488830006810F0806FF9D00320364924
:1001E00080310860AA203449C1F88C00552032497A
:1001F0008C310860704700BF3049097D11F0200F35
:10020000FAD02E490870704710B504460B4615E029
:1002100000BF2A48007D10F0010FFAD0274800786F
:10022000196860541968605CFFF7E5FF1868401CA6
:1002300018601868401E205C00B902E018689042FF
:10024000E6DB00BF10BD00B5024603E01078FFF703
:10025000D2FF521C10780028F8D100BD08B500204C
:100260000090FFF789FF1648006840F050001449DD
:100270000860832011490873492008700220087122
:10028000F1200E49283108700C48007B20F08000D6
:100290000A4908730DE040F2F23269460948FFF757
:1002A000B3FF0098401E0749085C10B90846FFF7E5
:1002B000CAFFF0E7A0C10F4000C00F4000C00040DF
:1002C00000C00240000000107047704770470446AD
:1002D000AFF300802046FFF730FF00000048704772
:1002E000F403001003494FF01800ABBE7047000044
:1002F000090000002600020070470000FFFFFFFF1A
:100300007546FFF7EBFFAE4605006946534620F001
:100310000700854618B020B5FFF720FFBDE8204054
:100320004FF000064FF000074FF000084FF0000BB1
:1003300021F00701AC46ACE8C009ACE8C009ACE864
:10034000C009ACE8C0098D46704700005C0300009E
:0C03500000000010580600000001000032
:04000005000000C532
:00000001FF
